:020000040800F2
:10000000300D0020890100085D0F0008F50400088C
:10001000710E0008390300089D1C00080000000054
:100020000000000000000000000000009112000825
:1000300079030008000000005110000811140008A6
:10004000A3010008A3010008A3010008A301000800
:10005000A3010008A3010008A3010008A3010008F0
:10006000A3010008A3010008A3010008A3010008E0
:10007000A3010008A3010008A3010008A3010008D0
:10008000A3010008A3010008A3010008A3010008C0
:10009000A3010008A3010008A3010008A3010008B0
:1000A000A3010008A3010008A3010008A3010008A0
:1000B000A3010008A3010008A3010008A301000890
:1000C000A3010008A3010008A3010008991000087B
:1000D00071110008AD170008E11700081518000895
:1000E000A3010008A3010008710F00080000000030
:1000F0000000000000000000000000000000000000
:1001000000000000A3010008A30100080000000097
:10011000A3010008A3010008000000000000000087
:10012000A3010008A3010008A3010008A30100081F
:1001300000000000000000000000000000000000BF
:10014000000000000000000000000000610F000837
:100150000000000000000000A3010008A301000847
:10016000000000000000000000000000A3010008E3
:10017000DFF810D000F088F8004800472D2A00086A
:10018000AFF30080300D0020064880470648004746
:10019000FEE7FEE7FEE7FEE7FEE7FEE7FEE7FEE737
:1001A000FEE7FEE73D150008710100082DE9F05F4C
:1001B0000546002092469B468846064681464024D6
:1001C0001BE0284641464746224600F04CF853467D
:1001D0005A46C01A914110D311461846224600F0E3
:1001E00033F82D1A67EB01084F4622460120002103
:1001F00000F02AF817EB00094E41201EA4F101047B
:10020000DFDC484631462A464346BDE8F09F421CA3
:1002100010F8011B0029FBD1801A704730B50B463E
:10022000014600202022012409E021FA02F59D4226
:1002300005D303FA02F5491B04FA02F52844151EFA
:10024000A2F10102F1DC30BD202A04DB203A00FAE1
:1002500002F1002070479140C2F1200320FA03F31D
:10026000194390407047202A04DB203A21FA02F01B
:100270000021704721FA02F3D040C2F120029140E0
:100280000843194670470000064C074D06E0E06839
:1002900040F0010394E8070098471034AC42F6D3CD
:1002A000FFF76AFF107E0008307E000870B58C18DA
:1002B00010F8015B15F0070301D110F8013B2A117A
:1002C00006D110F8012B03E010F8016B01F8016B67
:1002D0005B1EF9D12B0705D40023521E0DD401F863
:1002E000013BFAE710F8013BCB1A921C03E013F82C
:1002F000015B01F8015B521EF9D5A142D8D3002061
:1003000070BD000006480749086007484860074973
:10031000044881600649C160064802490861704787
:100320005503000818090020F90400089D1300086F
:100330007D0F00088903000800BFFEE7024682EA3D
:100340002120034B33F8100080EA012080B270476F
:10035000D67B000870B504460D46002605E02078DF
:100360003146FFF7EBFF0646641C281EA5F101018C
:100370008DB2F4D1304670BD704710B504462146A9
:10038000032001F0D0F910BD30B50346002005E090
:100390000446401C1C5D8C4200D130BD9042F7D316
:1003A0000020FAE7F0B500BF4FF0E02080690D496A
:1003B0000968081A0C494860084602680023094881
:1003C0000068C6171446A4FB001703FB007002FB6D
:1003D00006030A4604484068821843F100031046A9
:1003E0001946F0BD100000201C00002013B582B09B
:1003F0000024684600F034F803990198441A002C50
:1004000005DA9DF80200401EC0B28DF802009DF88A
:1004100002009DF80A10401A43F6095110FB01F042
:1004200004EB8014204604B010BD0246107D022863
:1004300013DA012010711388581C108002F1150086
:10044000C1547D2901D1022010751088C82801DD12
:100450000320107502F115009060107D70470000B8
:100460002DE9FF470446002002900390FFF79AFF12
:1004700005460E461B480268D31728463146FFF74B
:1004800095FE81464946684600F088FFDDE9000197
:10049000CDE90201144899FBF0F0002806DD0020A8
:1004A00002900390DDE9020100F0A0FF0D48026810
:1004B000D31728463146FFF779FE174619460B48F1
:1004C0000268D3173846FFF771FE03900848DDE94C
:1004D00002128160C260DDE90201C4E90001BDE8E9
:1004E000FF870000BC01002080510100C4010020F2
:1004F000A801002000BFFEE703B59DF802109DF89B
:100500000120C2EB021201EB82019DF80020C2EB38
:100510004213C3EB022201EB02100449884201DAC4
:10052000014600E0014908460CBD00008051010071
:100530001CB50446684602F073F9B4B101211248B3
:1005400001F044FF4FF40050009001208DF80700A7
:1005500000208DF804008DF8060018208DF80500A5
:1005600069460A4802F067F90CE04FF40050009029
:1005700003208DF8060004208DF805006946034825
:1005800002F059F91CBD00000400180000100140E1
:1005900070B505460C4625B1012D03D0022D06D1BC
:1005A00004E005E02046FFF7C3FF01E000E000BFE4
:1005B00000BF70BD70B50446012514B1012C08D1EF
:1005C00000E007E04FF40051044802F088F90546C6
:1005D00000E000BF00BF284670BD000000100140D1
:1005E0002DE9F04107460C4615461E463548007871
:1005F000A8B92A2000F0C6FB384600F0DDFB2846EB
:1006000000F0DAFB2B2000F0BDFB204600F0D4FB0D
:10061000304600F0D1FB2C2000F0B4FB50E029481C
:100620000078012819D12A2000F0ACFB384600F0F0
:10063000C3FB284600F0C0FB2B2000F0A3FB04F115
:10064000500188B200F0B8FB06F1500188B200F00A
:10065000B3FB2C2000F096FB32E01A480078022809
:1006600015D12A2000F08EFB384600F0A5FB284665
:1006700000F0A2FB2B2000F085FB204600F09CFB45
:10068000304600F099FB2C2000F07CFB18E02A207B
:1006900000F078FB07F1500188B200F08DFB05F106
:1006A000500188B200F088FB2B2000F06BFB204645
:1006B00000F082FB304600F07FFB2C2000F062FB54
:1006C000BDE8F081A6010020002106E042F2107290
:1006D00000BF531E1A1EFCDC491C8142F6DB70472A
:1006E0002DE9F04706460F469046994600254446B8
:1006F00041E07A1B91B2321B90B24A4600F095F865
:100700007A1B91B2321990B24A4600F08EF83A192B
:1007100091B2721B90B24A4600F087F83A1B91B230
:10072000721B90B24A4600F080F87A1991B23219E1
:1007300090B24A4600F079F83A1B91B2721990B221
:100740004A4600F072F83A1991B2721990B24A46CC
:1007500000F06BF87A1991B2321B90B24A4600F061
:1007600064F86D1C05FB05F004FB040108FB08F0B0
:10077000814200DD641EA542BBDDBDE8F0872DE9A6
:10078000FF4F85B081468A46002003908346079834
:10079000A0EB09050898A0EB0A06CDF80890CDF863
:1007A00004A0002D01DD012705E00DB9002702E0BE
:1007B0004FF0FF376D42002E02DD4FF0010806E0DA
:1007C00016B94FF0000802E04FF0FF387642B5420C
:1007D00001DD2C4600E03446002004901EE0019A22
:1007E00091B2029A90B2129A00F01FF8039828442E
:1007F0000390B3440398A04205DD0398001B0390C7
:10080000029838440290A34504DDABEB040B019839
:10081000404401900498401C80B20490611C0498EC
:100820008842DCDB09B0BDE8F08F70B504460D46A8
:1008300016462B46224629462046FFF7D1FE304673
:1008400000F0BAFA70BD2DE9F84305460E4617468A
:100850009846089C33463A46314628460094FFF7AE
:100860008EFF43462A46314628460094FFF787FF0D
:1008700043463A46414628460094FFF780FF4346E8
:100880003A46314638460094FFF779FFBDE8F883D1
:100890002DE9F04706460F4614461D46DDF8209028
:1008A000A01BE91B00FB01F8681E83B2601E82B228
:1008B00039463046FFF794FE04E0484600F07CFAE3
:1008C000A8F10108B8F1000FF7DCBDE8F0870000DF
:1008D0001CB50446684601F0A3FFBCB101211248D3
:1008E00001F074FD4FF48060009001208DF8070046
:1008F00000208DF8040010208DF8060004208DF8EB
:1009000005006946094801F096FF0CE04FF480604D
:10091000009003208DF8060004208DF8050069463C
:10092000024801F088FF1CBD0200180000080140C9
:1009300038B504462046FFF7CBFF204600F05EFCAA
:10094000C820FFF7C1FE112000F01CFA1420FFF7A9
:10095000BBFE362000F016FA3220FFF7B5FE6A48DB
:10096000007820B1012806D002280CD107E0002031
:1009700000F033FA0BE0C02000F02FFA07E07020FF
:1009800000F02BFA03E0A02000F027FA00BF00BF20
:100990003A2000F0F7F9052000F01FFAB22000F02D
:1009A000F1F90C2000F019FA0C2000F016FA0020E2
:1009B00000F013FA332000F010FA332000F00DFAA3
:1009C000B72000F0DFF9352000F007FABB2000F077
:1009D000D9F9192000F001FAC02000F0D3F92C2039
:1009E00000F0FBF9C22000F0CDF9012000F0F5F98C
:1009F000C32000F0C7F9122000F0EFF9C42000F086
:100A0000C1F9202000F0E9F9C62000F0BBF90F2061
:100A100000F0E3F9D02000F0B5F9A42000F0DDF9F2
:100A2000A12000F0DAF9E02000F0ACF9D02000F0CD
:100A3000D4F9042000F0D1F90D2000F0CEF91120F6
:100A400000F0CBF9132000F0C8F92B2000F0C5F915
:100A50003F2000F0C2F9542000F0BFF94C2000F014
:100A6000BCF9182000F0B9F90D2000F0B6F90B2000
:100A700000F0B3F91F2000F0B0F9232000F0ADF929
:100A8000E12000F07FF9D02000F0A7F9042000F069
:100A9000A4F90C2000F0A1F9112000F09EF9132018
:100AA00000F09BF92C2000F098F93F2000F095F918
:100AB000442000F092F9512000F08FF92F2000F02F
:100AC0008CF91F2000F089F91F2000F086F9202002
:100AD00000F083F9232000F080F9212000F052F982
:100AE000112000F04FF9292000F04CF9C820FFF741
:100AF000EBFD06480088F0231A46002100900846C6
:100B0000FFF7C6FE38BD0000A6010020A4010020AA
:100B10002DE9FF5F07468A4690469B460F9D0020C1
:100B200002900097284605EBD071C1F34704204698
:100B3000E21704EB5272D2102146E31704EB537311
:100B4000DB10A4EBC3030BB1012300E000231A4424
:100B50006A4392B20192A8F1200000F0FF080AEB6C
:100B60000500401E83B23819401E82B251463846F5
:100B7000FFF736FD00265BE0102D05D12F4800EB76
:100B80000810805D039013E0182D07D108EB480092
:100B90002B4901EB0010805D039009E0202D05D169
:100BA000284800EB8810805D039001E0BDE8FF9FBE
:100BB0004FF0000936E01098C8B9012000FA09F09A
:100BC0000399084018B1584600F0F6F802E00E9874
:100BD00000F0F2F80298401CC0B20290029890FB1C
:100BE000F4F104FB1100C8B9002002901DE00120BF
:100BF00000FA09F00399084020B15A465146384698
:100C0000FFF713FE781C87B20098381AA04205D16E
:100C1000009F0AF101001FFA80FA06E009F10100C5
:100C200000F0FF09B9F1080FC5DB00BF701C86B2E8
:100C300001988642A0DB00BFB8E70000564C0008D0
:100C400046520008166400082DE9FE47064689460C
:100C500015469A46DDE90C480B9F1CE0182C09D17B
:100C600053462A4649463046CDE90148009700F0F0
:100C700017F80DE0202C09D153462A464946304644
:100C8000CDE90148009700F00FF801E0BDE8FE87CC
:100C9000AD1C301986B228780028DFD100BFF5E7F7
:100CA00070B504AC70CC70BD70B504AC70CC70BDC8
:100CB0002DE9F05F0746884615461E46DDF8289068
:100CC000002408EB0600401E83B27819401E82B251
:100CD00041463846FFF784FCA24618E04FF0000B6F
:100CE0000FE019F8140000F078F8012101EB44013D
:100CF00019F8010000F071F8641C0BF101001FFAF3
:100D000080FBB345EDDB0AF101001FFA80FAAA452A
:100D1000E4DBBDE8F09F2DE9FE4305460F4616468D
:100D20009846DDE90A94102C03D0182C01D0202C11
:100D30000FD1204604EBD071491069438DB207FBF7
:100D400004F087B2F02D00DDF025F02F03DDF02751
:100D500001E0BDE8FE8310E00020CDE900940290A0
:100D60003278434639462846FFF7D2FE204604EB48
:100D7000D07105EB61018DB2761C30780028EBD183
:100D800000BFE6E710B504460121084600F0FEF971
:100D90004FF4806007490860204600F02CF84FF4BB
:100DA00080600449091F08600021012000F0EEF96D
:100DB00010BD00001408014010B50446012108468A
:100DC00000F0E4F9201200F016F8E0B200F013F899
:100DD0000021012000F0DAF910BD10B50446012110
:100DE000084600F0D3F9204600F005F80021012064
:100DF00000F0CCF910BD10B50446204600F0E4F92F
:100E000010BD000010B501F099FF032001F0ACFE09
:100E100000F030F8FFF776FA0C4881680120884727
:100E20000A48416801208847084801224FF4E1310F
:100E3000C368032098470548012142690846904746
:100E40000348016803A000F02BFF10BD1C05002023
:100E5000C801002073797374656D5F636F72655F9D
:100E6000636C6F636B3A202564200D0A000000005C
:100E700000BFFEE710B500F019F806480649886083
:100E80000648C86006480861064848600648486148
:100E900010BD0000211400081C050020211C0008C2
:100EA0004918000831090008910500081748184939
:100EB0000860184848601849154881601749C160A2
:100EC0001749016117494161174981611749C1619A
:100ED0001749016217480E49486217490C48816258
:100EE0001649C16216494163164809490863164903
:100EF000074881631549016415480549C8631549C8
:100F00000348416414480249886470477B03000821
:100F100034050020910800082B0800087F0700080E
:100F2000E106000847080008170D0008490C0008F2
:100F3000B10C000825130008AD1200089312000838
:100F400061040008ED130008ED030008F116000825
:100F50002717000800090020B505000870470000A9
:100F600010B5024803F0E3FB10BD00007803002039
:100F700010B54FF4802001F05DFB10BD3CB5044678
:100F8000D4E900100968884206D0206800686060D3
:100F900000202072607255E0207A40B90120207252
:100FA00000206072E16903C9C4E905014AE000203C
:100FB000009001900025D4E90501FFF79DFA00900B
:100FC000E269D2E90001FFF797FA0190DDE900013B
:100FD000884203DD1C49019808440190DDE90010B6
:100FE000401A0090D4E90301FFF786FA0190E06906
:100FF0004168A069814209D20098401E00901349BF
:10100000A069081AE1694968451803E0E069416888
:10101000A0690D1A2069A84202D90098401E0090CC
:10102000DDE90001401A0AD470206072A07A08B984
:10103000012000E00020A0720020207201E00020CA
:10104000607200BF607A3CBD8051010040420F00D9
:101050007047000070B504460D460D480268D3176E
:1010600020462946FFF7A2F80A49086008480268A6
:10107000D31720462946FFF799F806484260406892
:1010800003490968081A4FF0E021886170BD00002B
:10109000100000201C00002010B502210B4801F0B8
:1010A00089FD012810D18021084801F083FD58B93D
:1010B00000228021054801F085FD0021012000F07B
:1010C00065F801200249088010BD00000030014091
:1010D0000C0000201CB50446684601F0A1FB9CB33F
:1010E0000121214801F072F901214FF4C01001F0F3
:1010F0006DF94FF48050009001208DF8070000201A
:101100008DF8040010208DF8060004208DF80500ED
:101110006946164801F08FFB4FF4204000900820EC
:101120008DF806006946114801F085FB4FF48040B8
:10113000009000208DF8060018208DF80500694603
:101140000A4801F078FB0DE0FFE74FF47040009093
:1011500003208DF8060004208DF805006946034839
:1011600001F069FB1CBD000003001800000C0140E9
:1011700010B50221044801F01DFD012803D1802192
:10118000014801F017FD10BD0038004020B10128D2
:1011900007D0022812D110E04FF48052094B1A6098
:1011A0000DE029B14FF48052064B1B1D1A6003E07D
:1011B0004FF48052034B1A6001E000E000BF00BF13
:1011C00070470000100C014010B5044600BF02211A
:1011D0000948006801F0EEFC0028F8D021460648D6
:1011E000006801F0E5FC00BF80210348006801F0C1
:1011F000E1FC0028F8D110BD080000207CB50546B0
:10120000002405B101242046FFF764FF00210120DE
:10121000FFF7BCFF1C48006801F0DEFC684601F0E7
:10122000B7FC072001F0A0FC2146184801F0CEF8D9
:1012300000220121242001F033FC01208DF801005F
:1012400000208DF8040002208DF8020000208DF8A7
:10125000030001208DF805008DF806008DF80700C9
:1012600000208DF8000069460748006801F0D4FCB2
:10127000002280210448006801F0A4FC21460248B5
:10128000006801F090FC7CBD080000200E001C00EE
:10129000704730B50446002504E04FF47A7000F042
:1012A00005F86D1CA542F8DB30BD00002DE9F04FBC
:1012B0008346194800680BFB00FAFFF773F80646EF
:1012C0000F4624E0FFF76EF80D460446301B77EB1F
:1012D000050004D2B4EB060865EB07090FE00F48E0
:1012E0000068C0080E4900FB01F84FF00009B8EB98
:1012F000060869EB070918EB040849EB05094FEAF2
:10130000EA70B8EB0A0179EB000000D300E0D9E7FE
:1013100000BFBDE8F08F000014000020C8010020CD
:10132000805101002DE9F04F8346194800680BFBFE
:1013300000FAFFF737F806460F4624E0FFF732F8C9
:101340000D460446301B77EB050004D2B4EB0608CB
:1013500065EB07090FE00F480068C0080E4900FB65
:1013600001F84FF00009B8EB060869EB070918EB24
:10137000040849EB05094FEAEA70B8EB0A0179EB7A
:10138000000000D300E0D9E700BFBDE8F08F000007
:1013900018000020C8010020805101001CB5024641
:1013A0004FF4616391FBF3F0182801DA034600E083
:1013B0001823DBB28DF800304FF4616391FBF3F436
:1013C00003FB14133C2493FBF4F0C3B28DF80130FB
:1013D0003C2391FBF3F403FB1410C3B28DF80230ED
:1013E000DDE90034C2E900341CBD000013B5DDE9BD
:1013F0000001FFF781F804460448006884FB0020E0
:1014000001461046FFF726FE1CBD0000BC0100206F
:1014100002480068401C0149086070471C00002019
:1014200010B50446204600F01FF80A480068C008BE
:1014300009490860084600684FF47A7190FBF1F0A2
:101440000649086004480068054990FBF1F0054929
:10145000086010BDC8010020BC010020C0010020B0
:1014600040420F00C401002070B504462B480068BC
:1014700000092B49086029480068C0084FF47A71B8
:10148000B0FBF1F02749086024480068C0082649ED
:10149000B0FBF1F02549086054B300BF1F48006855
:1014A0000109481EB0F1807F01D301201BE0481ED6
:1014B0004FF0E022506150170F22002804DB130781
:1014C0001D0E1B4B1D5406E013071E0E194B00F09A
:1014D0000F052D1F5E5500BF00204FF0E0229061E8
:1014E0000720106100200028D8D101F017FD13E07B
:1014F00000BFBFF34F8F0F480C38006800F4E06066
:101500000D490843001D0B490C390860BFF34F8F8C
:1015100000BF00BF00BFFDE770BD0000C801002094
:10152000100000201400002040420F00180000208E
:1015300000E400E018ED00E00000FA052248C06970
:1015400020F0805000F180501F49C8611F4800788A
:1015500040F004001D49503981F850001A48C06914
:1015600020F080501849C8610846006820F001004A
:10157000401C086000BF14480068C0F34000002809
:10158000F9D01148406820F003000F49486000BFBF
:101590000D484068C0F381000028F9D10A4800686E
:1015A0000B490840084908600020486041F6107067
:1015B000C8624FF4801008634FF41F008860C803AE
:1015C000044908607047000000100240507000405D
:1015D000FFFFF2FE08ED00E070B50446062C15D2C0
:1015E000DFE804F01403070B0F130E480E490860E0
:1015F0000EE00E480C4908600AE00D480A490860F0
:1016000006E00C480849086002E001E0002070BDD7
:1016100000BF20210448006801F0AAFC05462846C6
:10162000F5E700000038014024000020004400409D
:1016300000480040004C004010B50446062C15D26E
:10164000DFE804F01403070B0F130D480D49086081
:101650000DE00D480B49086009E00C480949086095
:1016600005E00B480749086001E000E010BD00BF3D
:1016700020210448006801F072FC00BFF6E700007A
:101680000038014024000020004400400048004091
:10169000004C004070B50446062C15D2DFE804F07B
:1016A0001403070B0F130D480D4908600DE00D489A
:1016B0000B49086009E00C480949086005E00B483F
:1016C0000749086001E000E000BF00BF044800686F
:1016D00001F038FC0546284670BD00000038014086
:1016E000240000200044004000480040004C00401E
:1016F0002DE9F04107460C461546C82D01DA28466B
:1017000000E0C8208046002605E03046761C215CBB
:10171000384600F015F8B8F10000A8F10108F4D13E
:101720000120BDE8F08170B505460C462046FEF765
:101730006EFD0646324621462846FFF7D9FF70BDAA
:1017400070B504460D46062C15D2DFE804F01403EC
:10175000070B0F131048114908600DE010480F499E
:10176000086009E00F480D49086005E00E480B4984
:10177000086001E000E070BD00BF00BF40210748E5
:10178000006801F0F5FB0028F8D0294603480068FE
:1017900001F0DCFB00BFEEE7003801402400002030
:1017A0000044004000480040004C004070B5012556
:1017B0002846FFF711FF80B12846FFF76BFFC4B240
:1017C000064951F825002146FEF72FFE2846FFF76F
:1017D00033FF21462846FFF7B3FF70BD0009002004
:1017E00070B502252846FFF7F7FE80B12846FFF7BF
:1017F00051FFC4B2064951F825002146FEF715FEF7
:101800002846FFF719FF21462846FFF799FF70BDCC
:101810000009002070B503252846FFF7DDFE80B1E2
:101820002846FFF737FFC4B2064951F82500214684
:10183000FEF7FBFD2846FFF7FFFE21462846FFF78F
:101840007FFF70BD0009002008B501F0F7FF02F02E
:101850002AF801210D4800F0B9FD012001F05CFCDF
:1018600000221146432001F01BF90121084880F8AD
:10187000A1110848084B00220090054802F0E8FE3C
:101880004FF4FA7001F0AAFC08BD00000C0014002F
:1018900078030020600000202C0000207CB5044666
:1018A0000D4600262F48304908600846006801F0C0
:1018B000E3FB05B1012631462C4800F087FD0121EC
:1018C0002A480C3800F082FD684600F0A9FF4FF46A
:1018D0000070009001208DF8070000208DF80400B2
:1018E00008208DF8060004208DF805006946204880
:1018F00000F0A1FF4FF48060009000208DF80600FA
:1019000018208DF805006946194800F094FF07205B
:1019100001F02AF901220021252001F0C1F800235D
:101920001A4621461048006801F02AFB01210E48A2
:10193000006801F0EBFB01210B48006801F097FB08
:1019400000210948006801F06CFB012209490648A2
:10195000006801F04BFB01210348006801F0FAFA2E
:101960007CBD000000380140240000200E0018005B
:101970000008014005000C007CB504460D46002619
:101980002D482E4908600846006801F075FB05B136
:10199000012631462A4800F019FD0121294800F0AE
:1019A00015FD684600F03CFF0420009001208DF8F2
:1019B000070000208DF8040008208DF806000420A0
:1019C0008DF805006946204800F035FF082000909A
:1019D00000208DF8060018208DF8050069461A4889
:1019E00000F029FF072001F0BFF802220021262085
:1019F00001F056F800231A4621461048006801F00D
:101A0000BFFA01210D48006801F080FB01210B485D
:101A1000006801F02CFB00210848006801F001FB80
:101A200001220A490548006801F0E0FA0121034853
:101A3000006801F08FFA7CBD0044004024000020C3
:101A400011001C00020018000008014005000C00F5
:101A50007CB504460D4600263348344908600846E4
:101A6000006801F009FB05B101263146304800F05D
:101A7000ADFC01214FF4C01000F0A8FC01212D485D
:101A800000F0A4FC01212C4800F032FF684600F071
:101A9000C7FE4FF48060009001208DF80700002001
:101AA0008DF8040008208DF8060004208DF805004C
:101AB0006946224800F0BFFE4FF40060009000200D
:101AC0008DF8060018208DF8050069461B4800F0C7
:101AD000B2FE072001F048F803220021272000F081
:101AE000DFFF00231A4621461048006801F048FA3B
:101AF00001210E48006801F009FB01210B48006834
:101B000001F0B5FA00210948006801F08AFA0122C3
:101B10000B490648006801F069FA01210348006892
:101B200001F018FA7CBD00000048004024000020AD
:101B300012001C00040018000104182C00100140C1
:101B400005000C007CB504460D4600262E482F49A2
:101B500008600846006801F08FFA05B10126314699
:101B60002B4800F033FC01212A4800F02FFC684686
:101B700000F056FE4FF48060009001208DF80700C1
:101B800000208DF8040008208DF8060004208DF850
:101B900005006946204800F04EFE4FF400600090BA
:101BA00000208DF8060018208DF8050069461A48B7
:101BB00000F041FE072000F0D7FF0422002134206E
:101BC00000F06EFF00231A4621461048006801F01D
:101BD000D7F901210D48006801F098FA01210B485E
:101BE000006801F044FA00210848006801F019FA81
:101BF00001220A490548006801F0F8F9012103486B
:101C0000006801F0A7F97CBD004C004024000020D2
:101C100013001C00040018000010014005000C0017
:101C200070B504460D461646012C06D0022C0DD088
:101C3000032C14D0042C24D11AE031462846FFF797
:101C40002DFE1148114941F824001BE03146284679
:101C5000FFF792FE0E480D4941F8240012E031468C
:101C60002846FFF7F5FE0B48084941F8240009E033
:101C700031462846FFF766FF0748044941F824002B
:101C800000E000BF00BF70BD8005002000090020FB
:101C900060060020400700202008002000BFFEE76B
:101CA0000FB4054B10B503A9044A029800F018F8C8
:101CB00010BC5DF814FB0000D9260008CC01002000
:101CC00002E008C8121F08C1002AFAD17047704705
:101CD000002001E001C1121F002AFBD17047000063
:101CE0002DE9FF4F89B09B460446002506E02528D4
:101CF0000BD05A460B999047641C6D1C2078002825
:101D0000F5D10DB02846BDE8F08F0027B846012276
:101D1000474900E0074314F8013F203B02FA03F073
:101D20000842F7D120782E2819D114F8010F47F076
:101D300004072A280ED06FF02F022078A0F130017E
:101D400009290CD808EB880102EB410100EB0108DE
:101D5000641CF2E70A98641C50F8048B0A902078FF
:101D60000028CED0642808D0692806D075281ED057
:101D70005A460B9990476D1C58E00A994FF00A0992
:101D800001C90A91002802DA40422D2102E03905FA
:101D900004D52B218DF82010012103E0F90704D090
:101DA0002021F7E78A4608AE0DE00021FAE70A99FC
:101DB0004FF00A0901C90A91F7E74946FEF72EFAE2
:101DC000303106F8011D0028F7D1ADEB060000F117
:101DD0002009780701D44FF00108C84502DDA8EBBF
:101DE000090000E000208046002706E008A85A46C7
:101DF000C05D0B9990476D1C7F1C5745F6DB04E0D6
:101E000030205A460B9990476D1CB8F10001A8F19B
:101E10000108F5DC05E016F8010B5A460B999047CE
:101E20006D1CB9F10001A9F10109F4DC641C65E73E
:101E3000092801002DE9F04706460C464FF000093D
:101E4000B046D8F80400456A207800F0600038B346
:101E500020285AD16078801E0A281BD2DFE800F0C3
:101E600012081A1A1A1A1A190E05A078686015E0D5
:101E70000122291D404601F0D3FF0FE060880012C7
:101E8000A8600BE0012205F10801404601F0C8FFFF
:101E900004E003E0404601F0E3FF00BF00BF38E08C
:101EA0006078062804D00A2823D00B282AD126E0FF
:101EB00060882221B1EB202F08D1E088222801DDA3
:101EC000222000E0E0888246144F0CE06088212147
:101ED000B1EB202F07D1E088092801DD092000E0BF
:101EE000E08882460E4F52463946404601F098FF40
:101EF00009E001222946404601F092FF03E0608894
:101F0000286000E000BF00BF03E0404601F0A8FFEA
:101F100000BF00BF4846BDE8F08700003701002041
:101F2000F000002070B50446002526468121304689
:101F300002F0C3F80121304602F0BFF8822130469A
:101F400002F0BBF8284670BD2DE9F0410446002799
:101F500025466868466A0021284602F0DDFA804678
:101F600096F89500092802D1002086F89500384699
:101F7000BDE8F0810146002070470246002001299B
:101F800004D0022903D0032903D101E002E001E0DB
:101F900000E000BF00BF704730B502460020144685
:101FA00065686B6A01F07F05012D01D183F89A50B5
:101FB00001F07F05022D02D1012583F89C5030BD30
:101FC0002DE9F0410446002726467068456A402303
:101FD00002228121304602F090F8402302220121A2
:101FE000304602F08AF8402303228221304602F074
:101FF00084F8402305F14C020121304602F0AAF892
:10200000012085F89A0085F89C003846BDE8F081EB
:102010002DE9F04104460F464FF000082546686858
:10202000466A3946284602F077FAA6F89800012059
:1020300086F89B004046BDE8F0812DE9F041064658
:102040000C464FF0000837467868456A207800F063
:102050001F00012802D002280ED10CE0A088012820
:1020600004D12146304600F069FC03E021463046A9
:10207000FFF7E0FE01E000E000BF00BF207800F0C5
:102080006000202832D160780C2829D2DFE800F0E7
:102090002827160A28282828281D1106A078C5F800
:1020A000800021E0012205F18001384601F0B8FEF0
:1020B0001AE060880012C5F8840015E0012205F1DD
:1020C0008401384601F0ACFE0EE0092085F88C0052
:1020D000E28805F18D01384601F084FE04E003E05A
:1020E000384601F0BDFE00BF00BF00BF00BF404644
:1020F000BDE8F081014600207047000003494968AF
:1021000060F30711014A516070470000001002405F
:102110000349496860F30A21014A51607047000091
:10212000001002400349496860F3CD21014A516023
:102130007047000000100240012807D10749496D8F
:1021400021F030013031054A516505E00349496D00
:1021500021F03001014A5165704700000010024033
:10216000052827D2DFE800F0030A11181F00134AE0
:10217000126861F30002114B1A601CE00F4A1268EA
:1021800061F310420D4B1A6015E00C4A126861F3BE
:1021900018620A4B1A600EE0084A126A61F30002E4
:1021A000064B1A6207E0054A526A61F30002034BCC
:1021B0005A6200E000BF00BF7047000000100240FC
:1021C0002DE9F04F85B004460025AA46AB4600260F
:1021D000A9460020049003900290019000F0FAF9C3
:1021E0000090009820B1012812D0022875D112E089
:1021F0005648406DC0F3402038B15448006BC0F3DE
:10220000406010B15248206001E05248206067E011
:102210005048206064E04D484068C0F3004B4B4894
:10222000C06AC00F30BB49484068C0F38345474887
:102230004068C0F3417ABAF1000F01D10F2D04D1EB
:102240004FEA0A10401C054400E0AD1CBBF1000F32
:1022500003D14148684320603DE03C484068C0F3FA
:10226000404018B13C486843206034E03948684336
:10227000206030E03548C06AC0F303100390334853
:10228000C06AC0F3082002903048C06A00F007001E
:102290000190BBF1000F02D12F48049009E02B48B8
:1022A0004068C0F3404010B12B48049001E0294839
:1022B00004900121019801FA00F0039900FB01FC50
:1022C00002990498A0FB017001466246002338463B
:1022D000FDF76CFF206003E0FFE71E48206000BFB1
:1022E00000BF1A484068C0F303161C4810F8069057
:1022F000206820FA09F0606014484068C0F30226A4
:10230000174810F80690606820FA09F0E0600F485E
:102310004068C0F3C226134810F80690606820FA9F
:1023200009F0A06009484068C0F30076074840689B
:10233000C0F3813040EA86060B4810F80690A0688A
:10234000B0FBF9F0206105B0BDE8F08F001002404D
:10235000006CDC0200127A0000093D00E67D0008F6
:10236000F67D0008FE7D0008067E000810B50146D7
:102370000020094B03EB1142126801F01F040123F6
:10238000A3401A4001F01F040123A3409A4200D049
:1023900000E0012010BD0000001002400349096B5D
:1023A00060F35961014A1163704700000010024058
:1023B00000B503460120FFF7F1FF0348406D63F3CA
:1023C00049200149486500BD0010024010B50129AF
:1023D0000DD10E4B03EB1042126800F01F040123D5
:1023E000A3401A43094C04EB10431A600CE0074B5E
:1023F00003EB1042126800F01F040123A3409A432C
:10240000024C04EB10431A6010BD000000100240A3
:1024100010B501290DD10E4B03EB1042126800F0EC
:102420001F040123A3401A43094C04EB10431A6014
:102430000CE0074B03EB1042126800F01F0401236D
:10244000A3409A43024C04EB10431A6010BD0000F5
:102450000010024030B50246002000233AB9324C49
:10246000646824F48034304D6C60304819E02E4CA0
:10247000646824F4803404F580342B4D6C60012AA8
:1024800006D12B482C46646824F400346C6008E0C4
:102490002648254C646824F4003404F50034224DA9
:1024A0006C60244CA04204D9234CA04201D20023EA
:1024B00026E0224CA04204D9214CA04201D20123A3
:1024C0001EE0204CA04204D91F4CA04201D202239E
:1024D00016E01D4CA04204D91C4CA04201D203239B
:1024E0000EE01B4CA04204D91A4CA04201D2042396
:1024F00006E0184CA04203D9174CA04200D2052395
:10250000094C646861F39544074D6C600D09064CF5
:10251000646865F35E74044D6C602C46E46A63F392
:102520001A64EC6230BD00000010024000093D005A
:1025300000127A0060823B00404B4C0080584F00F4
:10254000105E5F0094357700101B7F0020BCBE003A
:10255000286BEE0030D73D01D8E9DC011648006851
:1025600020F00100401C1449086000BF12480068B8
:10257000C0F340000028F9D00F48406820F0030065
:102580000D49486000BF0C484068C0F38100002836
:10259000F9D1094800680949084007490860002046
:1025A000486041F61070C8624FF4801008634FF421
:1025B0001F0088607047000000100240FFFFF2FE1D
:1025C0000349496860F30101014A51607047000006
:1025D0000010024002484068C0F3810070470000CC
:1025E000001002400649496860F39751044A51605F
:1025F00082080349496862F3DB61014A5160704710
:102600000010024010B50446012C01D1FFF7D0FEA6
:102610000348406D64F308200149486510BD00007F
:1026200000100240002141724160012101720170DD
:102630007047000001490860704700001404014021
:10264000014600204868234A12688243214B1A60E1
:102650001A1D126882431B1D1A604A7A0AB30A784F
:102660002AB91A1F126802431B1F1A6006E0194A92
:10267000121D12680243174B1B1D1A60154A0832BF
:1026800012688243134B08331A601A1D1268824382
:102690001B1D1A600A7A2AB91A1F126802431B1FEF
:1026A0001A6016E00A7A012A07D10A4A0C32126827
:1026B0000243084B0C331A600BE0064A08321268DA
:1026C0000243044B08331A601A1D126802431B1D93
:1026D0001A6070470004014070B504460D46E1B22F
:1026E0000320FFF72DF8204670BD000010B5054906
:1026F00005A002F077FA0D490880024848600846B4
:1027000010BD000078020020436F6D706F73697414
:10271000652048494420616E64204B6579626F6191
:10272000726420436F6E6669670000009C010020A0
:102730000048704784010020004870477C01002059
:1027400010B5054905A002F04DFA08490880024875
:102750004860084610BD0000780200204849442027
:10276000496E746572666163650000009C0100201B
:10277000004870478C01002010B5054905A002F003
:1027800031FA0649088002484860084610BD00003A
:102790007802002047582D574C0000009C01002073
:1027A0000020704710B5054905A002F01BFA094941
:1027B000088002484860084610BD000078020020EA
:1027C0004758574C5F323130385F4B6579626F61E3
:1027D000726400009C0100200020704710B500F0DA
:1027E00005F8014810BD00009401002070B50A48AA
:1027F0000468001D0568001D0668344454B10822B1
:102800000649204601F058FF0422044910312846A9
:1028100001F052FF70BD0000E8F7FF1F62010020C9
:102820004FF6FF7101600021817101710421417136
:102830000121C1717047F0B50A461588ABB2957990
:10284000032D01D100241AE0957965B9557905F079
:102850000F045579182D01D1036110E05579282D09
:102860000DD143610BE0957905F00805167906F066
:1028700004063543D67906F0030645EA0604DDB2C0
:10288000A5B1002110E001258D401D405DB1056816
:102890008F000F26BE40B543056005688E0004FA20
:1028A00006F635430560491C0829ECD3FF2B15DDDE
:1028B0001B12002110E001258D401D405DB14568CF
:1028C0008F000F26BE40B543456045688E0004FA70
:1028D00006F635434560491C0829ECD3F0BD024695
:1028E000002093680B408B4200D000E0012070472D
:1028F000F0B50C46104F07EB1062C0F30741C0F370
:102900000725C6B2C5F12007A7EB010C4FF0FF3732
:1029100007FA0CF3C5F120077F1AFB40CB408B4030
:1029200017689F4317602CB106FA01FC176847EA45
:102930000C071760F0BD0000000001402DE9F047D2
:1029400006460C464FF00009B046D8F80400456A28
:10295000207800F0600038B320285AD16078801EBB
:102960000A281BD2DFE800F012081A1A1A1A1A19DC
:102970000E05A078686015E00122291D404601F08F
:102980004FFA0FE060880012A8600BE0012205F109
:102990000801404601F044FA04E003E0404601F03B
:1029A0005FFA00BF00BF38E06078062804D00A282C
:1029B00023D00B282AD126E060882221B1EB202FDA
:1029C00008D1E0883E2801DD3E2000E0E088824614
:1029D000144F0CE060882121B1EB202F07D1E08853
:1029E000092801DD092000E0E08882460E4F5246AA
:1029F0003946404601F014FA09E0012229464046D2
:102A000001F00EFA03E06088286000E000BF00BF1C
:102A100003E0404601F024FA00BF00BF4846BDE88D
:102A2000F0870000F9000020F00000201CB5FEF740
:102A3000E9F928E01448416B684688471248816CE0
:102A400001208847F8B91048816C0120884778B97F
:102A50000E480068401C0D4908600846006864285C
:102A600001DD012008600948016809A0FFF718F995
:102A700000BF0548816A052088470348816C012012
:102A800088470028F5D0D5E7340500200400002051
:102A90004B6579206E756D203A202564000000009A
:102AA0002DE9F0470B4614464FF0000C00BF2C4AAE
:102AB0001268C2F302211D4626460A46C2F10709E2
:102AC000B9F1040F02D94FF0040901E0C2F107097E
:102AD000C84602F10409B9F1070F02D24FF000090C
:102AE00001E0A2F103094F464FF0010909FA08F984
:102AF000A9F1010909EA050909FA07F94FF0010AE4
:102B00000AFA07FAAAF1010A0AEA060A49EA0A09D0
:102B1000CC4601466246002904DB15072E0E114DF6
:102B20006E5407E015072F0E0D4D0C3501F00F0602
:102B3000361FAF5500BF014600290DDB00BF00BFA7
:102B400001F01F050122AA404D09AD0005F1E02565
:102B5000C5F8002100BF00BF00BFBDE8F08700003E
:102B60000CED00E000E400E000BF00F00702064BBF
:102B700019684FF6FF031940044B0B4343EA022147
:102B8000014B196000BF70470CED00E00000FA0532
:102B90000021017041708170C170017141718171BA
:102BA0000121C1717047026861F3861202607047AB
:102BB000C16070470246002093680B4003B900E0F3
:102BC000012070471AB143680B43436002E0436839
:102BD0008B4343607047000010B504460C488442A4
:102BE0000AD101214FF00C10FFF712FC00214FF029
:102BF0000C10FFF70DFC0AE00648844207D10121C2
:102C00008012FFF705FC0021A012FFF701FC10BDA8
:102C10000030014000380040C26922F40062C26105
:102C20000A7862B9026822F400420260026822F463
:102C300080420260026822F48062026036E00A7814
:102C4000012A0ED1026822F400420260026822F4D6
:102C500080420260026822F4806202F580620260B3
:102C600024E00A78022A0ED1026822F4004202F51A
:102C700000420260026822F480420260026822F48C
:102C80008062026012E00A78032A0FD1026822F4FF
:102C9000004202F500420260026822F4804202F51E
:102CA00080420260026822F480620260CB7902688E
:102CB00063F3492202604A78012A09D1CA79012ABC
:102CC00006D1026822F4807202F58072026003E08D
:102CD000026822F4807202604B78026863F3820219
:102CE00002608A78072A0BDD426822F4807202F5BE
:102CF000807242608A78036862F3C503036008E06B
:102D0000426822F4807242608B78026863F3C502E5
:102D10000260CB78026863F3C71202600B79026825
:102D200063F3CB2202604B79026863F341020260D5
:102D30008B79026863F300020260704710B500F0FF
:102D400001F810BD10B54FF4AA701E490860FFF7D6
:102D500005FC01210020FFF703FA00BF0120FFF767
:102D600005FB0128FAD123210020FFF773FB012185
:102D70000220FFF7F5F900BF1920FFF7F7FA012845
:102D8000FAD10020FFF7BAF90420FFF7CBF90420AD
:102D9000FFF7BEF90120FFF7CFF90220FFF710FC83
:102DA00000BFFFF717FC0228FBD10020FFF7C4F992
:102DB0000520FFF717FC0020FFF724FC00F004F8C3
:102DC00010BD0000002002402DE9FF5F0024002517
:102DD0000026A146A246A34600200390029001903F
:102DE000FFF7F8FB0090009820B1012814D00228CA
:102DF00074D115E04348406DC0F3402040B14148D4
:102E0000006BC0F3406018B13F484049086002E0E1
:102E10003F483E49086065E03D483C49086061E044
:102E200038484068C0F300463648C06AC00F20BB2F
:102E300034484068C0F3834432484068C0F3417569
:102E40000DB90F2C03D12801401C044400E0A41C40
:102E500026B9304860432D4908603DE02948406864
:102E6000C0F3404020B12B4860432849086033E05C
:102E700027486043254908602EE02248C06AC0F315
:102E8000031003901F48C06AC0F3082002901D4839
:102E9000C06A00F00700019016B9DFF878B009E0C9
:102EA00018484068C0F3404010B1DFF868B001E056
:102EB000DFF85CB00121019801FA00F0039900FBF2
:102EC00001FC0298ABFB00700146624600233846C5
:102ED000FDF76CF90D49086004E0FFE70C480B4969
:102EE000086000BF00BF07484068C0F303190A48E4
:102EF00010F809A00548006820FA0AF003490860A4
:102F0000BDE8FF9F00100240006CDC02C8010020F9
:102F100000127A0000093D00D67D0008042808D17F
:102F20004FF0E021096941F004014FF0E022116106
:102F300007E04FF0E021096921F004014FF0E022A1
:102F4000116170470146486880B27047C1F30802BA
:102F500042607047C26861F34D32C260704701F051
:102F60001F0212B10268426801E0CA430260704762
:102F700002461068084008B1012070470020FCE7B5
:102F80002DE9F04385B004460F46904699466846C1
:102F9000FFF716F91448844201D1029E00E0039E17
:102FA00006EB86004000B0FBF7F50A20B5FBF0F118
:102FB00000FB1150052803D20A20B5FBF0F503E011
:102FC0000A20B5FBF0F0451CA06865F30F00A06077
:102FD000E06868F30C30E060206969F30D3020612F
:102FE00005B0BDE8F08300000038014030B5012A8B
:102FF0000BD100EB11431B6801F01F050124AC400D
:10300000234300EB114423600AE000EB11431B68EB
:1030100001F01F050124AC40A34300EB11442360E1
:1030200030BD41B9C26822F40072C260C26822F4A5
:103030008062C2601AE001290AD1C26822F40072DB
:10304000C260C26822F4806202F58062C2600DE054
:1030500002290BD1C26822F4007202F50072C2602C
:10306000C26822F4806202F58062C2607047C26862
:1030700061F38202C260704710B504461D48844265
:1030800008D101211C48FFF7C3F900211A48FFF7B6
:10309000BFF92EE01948844208D101218012FFF7C0
:1030A000B7F90021A012FFF7B3F922E014488442D7
:1030B00008D101218012FFF7ABF90021A012FFF720
:1030C000A7F916E00F48844208D101218012FFF7CA
:1030D0009FF90021A012FFF79BF90AE00A488442F9
:1030E00007D101218012FFF793F90021A012FFF709
:1030F0008FF910BD003801400E000C000044004064
:1031000000480040004C004000500040C26861F39D
:10311000C302C2607047000010B50446164800683C
:10312000164A811A904218D007DC1549084458B154
:103130004FEA61010844E0B90BE01248084480B14D
:1031400010490844A8B910E04FF00100FFF74AFA0F
:1031500010E00020FFF746FA0CE00320FFF742FAE8
:1031600008E00220FFF73EFA04E00520FFF73AFAF4
:1031700000E000BF00BF10BDC801002000D8B805A6
:10318000009423FD00CA91FE40F60401095821F085
:10319000020240F604010A507047024682F8941178
:1031A00040F29D1081540023801C8354801C835462
:1031B00040234FF4CC7083520423401E83544FF4B9
:1031C000A073C01C8352012902D10223801C8354A6
:1031D000012340F2A11083540020704710B504462B
:1031E0002046FEF763F810BD40F60401095821F0AF
:1031F0000201891C40F60402115070474FF410611F
:103200000958CA0AD2024FF410610A5040F604016C
:10321000095821F4807240F604010A5070470146B3
:1032200001F53060002202610123026963F3DC4290
:10323000026102696FF3120218320261026922F020
:10324000C04202F1C0420261704710B58A7812BBD9
:103250000A7800F5106303EB4212126822F400149E
:103260000A7803EB42121460CA78032A02D0CA78A3
:10327000022A32D10A7800F5106303EB4212126879
:1032800022F0805202F180520B7800F5106404EBBA
:1032900043131A6021E00A7800F5306303EB421211
:1032A000126822F400140A7803EB42121460CA7800
:1032B000032A02D0CA78022A0FD10A7800F53063B7
:1032C00003EB4212126822F0805202F180520B7816
:1032D00000F5306404EB43131A6010BD10B58A7812
:1032E000B2B940F61C0212580C780123A3409A434D
:1032F00040F61C031A500A7800F5106303EB4212E3
:10330000126822F400440A7803EB4212146016E0BB
:1033100040F61C0213580C780122A24023EA024313
:1033200040F61C0213500A7800F5306303EB42129A
:10333000126822F400440A7803EB4212146010BDB4
:1033400010B50146002000BF37E000EB400202EB61
:10335000C00301F10C0202F8230000EB400202EB73
:10336000C00301F10C0202EB83025070002300EB5A
:10337000400202EBC00401F10C0202EB84029370E4
:1033800000EB400202EBC00401F10C0202EB8402EC
:10339000936000EB400202EBC00401F10C0202EB6F
:1033A0008402536100EB400202EBC00401F10C0205
:1033B00002EB84029361421CD0B20428C5DB0020DA
:1033C00038E000EB400202EBC00301F1BC0202F85E
:1033D000230000EB400202EBC00301F1BC0202EB50
:1033E00083025070012300EB400202EBC00401F1A4
:1033F000BC0202EB84029370002300EB400202EB5C
:10340000C00401F1BC0202EB8402936000EB4002B5
:1034100002EBC00401F1BC0202EB8402536100EB39
:10342000400202EBC00401F1BC0202EB8402936192
:10343000421CD0B20428C4DB10BD00F5106303EBBE
:1034400041139A60704730B502464FF40165AB589E
:1034500040F63405AC5824FA01F505F0010543EABD
:10346000C51302F5106505EB4115AD6805EA0300CB
:1034700030BD30B500220B788BB98B68402B00D162
:103480000DE08B68202B01D1012208E08B68102B06
:1034900001D1022203E08B68082B00D103228B7834
:1034A000002B61D140F61C031B580D780124AC4061
:1034B000234340F61C0423500B7873B90B7800F5B6
:1034C000106404EB43131B6862F30A030C7800F5E5
:1034D000106505EB441423600EE00D890B7800F5B0
:1034E000106404EB43131C6865F30A040B7800F5C1
:1034F000106505EB43131C60CD780B7800F5106464
:1035000004EB43131C6865F393440B7800F51065D6
:1035100005EB43131C600D7800F5106404EB4513B4
:103520001B6865F399532C4600F5106505EB4414B0
:1035300023600B782C4604EB43131B6823F0805365
:1035400003F180530C7805EB441423600B782C4670
:1035500004EB43131B6823F4004303F500430C788A
:1035600005EB4414236053E040F61C031C580D780F
:103570000123AB4044EA034440F61C031C500B7883
:1035800073B90B7800F5306404EB43131B6862F3E6
:103590000A030C7800F5306505EB441423600EE057
:1035A0000D890B7800F5306404EB43131C6865F358
:1035B0000A040B7800F5306505EB43131C60CD78E9
:1035C0000B7800F5306404EB43131B6865F39343F9
:1035D0000C7800F5306505EB441423600B782C461D
:1035E00004EB43131B6823F0805303F180530C78E2
:1035F00005EB441423600B782C4604EB43131B6843
:1036000023F4004303F500430C7805EB44142360D6
:1036100030BD00F5306303EB41139A6070470246FA
:1036200002F5306000EB4110836840F614008058CA
:103630001840704710B58A7812BB0A7800F51063FD
:1036400003EB42121268D20F4AB90A7803EB421216
:10365000126822F080440A7803EB421214600A7860
:1036600000F5106303EB4212126822F4001202F517
:1036700000120B7800F5106404EB43131A6021E08C
:103680000A7800F5306303EB42121268D20F4AB990
:103690000A7803EB4212126822F080440A7803EBA6
:1036A000421214600A7800F5306303EB421212688C
:1036B00022F4001202F500120B7800F5306404EBDE
:1036C00043131A6010BD00000021026922F01002AD
:1036D0001032026105E00A46491C054B9A4200D9A6
:1036E00004E00269C2F30012002AF4D100BF70475F
:1036F000400D030010B50022036961F38A130361D2
:10370000036923F020032033036105E01346521CB4
:10371000054CA34200D904E00369C3F34013002B16
:10372000F4D100BF10BD0000400D0300014640F67B
:1037300018004258001D4058104080B270470146A2
:1037400040F618004258001D40581040000C7047C9
:103750004161704701464A6988691040704710B559
:103760000446204600F01EF8A06B20F4803000F5DF
:103770008030A063A06B20F4802000F58020A0633F
:10378000A06B20F4002000F50020A06310BD012AEA
:1037900003D183690B43836102E083698B438361B7
:1037A000704700000146002205E01046521C0F4BF6
:1037B000984200D903E00869C00F0028F5D000BF87
:1037C0000022086920F00100401C086105E0104655
:1037D000521C064B984200D904E0086900F0010031
:1037E0000028F4D100BF012070470000400D030005
:1037F00001464FF0A040704749B9C26822F000521C
:10380000C260C26822F0804202F18042C260012997
:1038100009D1C26822F08042C260C26822F0005220
:1038200002F10052C260022907D1C26822F0804230
:10383000C260C26822F00052C26070471CB501210C
:103840001148FEF7C3FD6846FEF7EAFF01208DF838
:10385000070000208DF8040008208DF806000420E1
:103860008DF8050069460948FEF7E5FF4FF4007042
:10387000009028208DF8050000208DF8060069468C
:103880000248FEF7D8FF1CBD0200180000080140E6
:10389000816821F0010181607047816821F0010198
:1038A000491C816070470EB56846FEF7BBFE0120DB
:1038B0008DF8090000208DF800004FF48020019061
:1038C00000208DF808006846FEF7BAFE0022114677
:1038D0002A20FFF7E5F80EBDD0F8001E21F0010107
:1038E000C0F8001E7047F0B51746DD1C4FEAE57CB6
:1038F00005EB9C7C4FEAAC060C46002205E04FF439
:1039000080552D582560241D521CB242F7D3F0BDBE
:10391000D0F8002861F30A12C0F80028704741620D
:103920007047F0B5134600240022426A19B942EAF2
:103930000345856215E0856A02EB1542002407E025
:1039400000F5827555F8245002EB1542651CECB267
:103950004D1EA542F4DC42EA034700F5827646F8A4
:103960002570F0BDD0F8001E21F00101491CC0F8FF
:10397000001E7047014640F60800405800F0010064
:1039800070472DE9F04780460E46D8F8007006EBE8
:10399000460000EBC60108F10C0000EB8104D4E9FD
:1039A0000601451A4FF00009A068A84200D2A56898
:1039B000E81C4FEA900915E0D4E90601451AA06811
:1039C000A84200D2A568E81C4FEA9009ABB2B2B297
:1039D0003846616900F021F8606928446061E06957
:1039E0002844E06107F5106000EB4610806980B262
:1039F000484506D9D4E90610884202D2A0690028B9
:103A0000DAD145B940F63400C0590121B1408843AC
:103A100040F63401C851BDE8F087F0B5DE1C4FEA2E
:103A2000E67C06EB9C7C4FEAAC070D46002409E0DF
:103A300000F5805606EB0236D5F800C0C6F800C087
:103A40002D1D641CBC42F3D3F0BD70B504460025A7
:103A500004F5B67694F88401022802D0032817D121
:103A600000E000BF7088012811D1002084F8870190
:103A7000D4F88C0120F00200C4F88C01606804F5D1
:103A8000B671826820469047204600F0DDF903E0D9
:103A9000204600F0E5F900BF00BF284670BD2DE9C3
:103AA000F04104460D46276805F0800050B105F04E
:103AB0007F0000EB400101EBC00104F10C0000EBC2
:103AC000810609E005F07F0000EB400101EBC00139
:103AD00004F1BC0000EB810631463846FFF7B5FB28
:103AE00000207073BDE8F08110B504462068FFF730
:103AF0004BFB10BD70B505460E4606F07F0000EB8F
:103B0000400101EBC00105F10C0000EB8104002E27
:103B100044D195F8800102284CD1A168606A88429E
:103B200011D9A168606A401A6062A168606A88421F
:103B300001D2606A00E0A06883B200212846626971
:103B400000F092FB36E0A168206A884217D1A16894
:103B5000A06A884213D3B5F88211A06A88420ED2B7
:103B60000020206200231A461946284600F07CFBFC
:103B700000231A463146284600F0ECFA1AE068683D
:103B8000C06838B195F88401032803D16868C1681A
:103B900028468847284600F037F90BE068684069F6
:103BA00040B195F88401032804D168683146426920
:103BB0002846904770BD00002DE9FF5F81468A4688
:103BC0009346C9F800A0D04608F50065012089F8A1
:103BD0008401002089F88601C9F804B00398C9F867
:103BE0000800484600F087F94846FFF7A9FB404621
:103BF000FFF74EFE4046FFF7B2FD00214046FFF7BB
:103C0000FBFDD9F80000FFF767FE286820F4C050DC
:103C10002860286820F00300C01C2860102140465E
:103C2000FFF768FD4046FFF74FFD4FF0FF30A861FA
:103C30000020E86128616861002405E0002108F5A2
:103C4000827040F82410641C042CF7D3484600F01E
:103C5000A0FB00241CE008F5106000EB441630685F
:103C6000C00F70B100203060306820F0804000F15B
:103C700080403060306820F0006000F1006030600B
:103C800001E00020306000203061FF20B060641C43
:103C9000042CE0D300241CE008F5306000EB44174E
:103CA0003868C00F70B100203860386820F080405C
:103CB00000F180403860386820F0006000F100605A
:103CC000386001E00020386000203861FF20B860D3
:103CD000641C042CE0D3286920F4807000F5807007
:103CE00028610020C8F818006FF08040C8F8140060
:103CF0000648C8F818004846FFF7F6FE4046FFF7AA
:103D0000CCFD002004B0BDE8F09F00001C383C80D2
:103D100070B505460E4606F07F0000EB400101EB52
:103D2000C00105F1BC0000EB810426BB95F88001C1
:103D300003282CD1A168606A884211D9A168606A01
:103D4000401A6062A168606A884201D2606A00E03D
:103D5000A06883B231462846626900F0FBF916E09C
:103D60006868006918B1686801692846884728466C
:103D700000F06AF80BE06868806940B195F884014A
:103D8000032804D16868314682692846904770BD8F
:103D900070B504460D4604F5BA7104F5B67000F02E
:103DA000E7FE012084F880014FF4B970005BA4F8AD
:103DB000820194F86C0100F01F0020B1012806D0A8
:103DC00002280CD107E0204600F055F808E0204614
:103DD00000F091FC04E0204600F093F800E000BF02
:103DE00000BF70BDF0B505460E46144605F1BC0790
:103DF000BC627C62032085F88001234632460021A4
:103E0000284600F0A7F9F0BD10B50446052084F857
:103E1000800100231A461946204600F09BF910BD88
:103E20002DE9F04105460E46144605F10C07BC622B
:103E30007C62022085F88001234632460021284614
:103E400000F012FABDE8F08110B50446042084F8B1
:103E5000800100231A461946204600F005FA10BDDD
:103E600010B504460021204600F05DFE802120466A
:103E700000F059FE10BD70B50446002504F5B67675
:103E8000307800F0600038B1606804F5B67182687F
:103E900020469047284670BD40F26D10005D0A280C
:103EA00022D2DFE800F00509210D21111521191D8D
:103EB000204600F03FFB1BE02046FFF7C6FD17E061
:103EC000204600F01BFE13E0204600F089FD0FE0C5
:103ED000204600F0A8FA0BE0204600F079FA07E04F
:103EE000204600F0A7FD03E02046FFF7B9FF00BF22
:103EF00000BF2846CFE710B504462068FFF774F9E5
:103F000010BD2DE9F04104464FF0000804F5B677E6
:103F10003D79387800F06000202805D1606804F50C
:103F2000B671826820469047787820B101283DD04C
:103F3000032872D162E094F88401022802D0032899
:103F40002ED107E005F07F0018B12946204600F089
:103F5000EAFD29E005F0800050B105F07F0000EB9C
:103F6000400101EBC00104F10C0000EB810609E007
:103F700005F07F0000EB400101EBC00104F1BC0043
:103F800000EB8106707B012801D1306101E0002047
:103F90003061022206F110012046FFF741FF03E0E5
:103FA0002046FFF75DFF00BF00BF54E094F8840196
:103FB000022802D003281BD107E02DB1802D03D0A9
:103FC0002946204600F0AFFD16E0788878B905F064
:103FD0007F0048B129462046FFF761FD606804F57F
:103FE000B6718268204690472046FFF72DFF03E018
:103FF0002046FFF735FF00BF00BF2CE094F8840196
:10400000022802D003281CD108E02DB1802D03D056
:104010002946204600F087FD17E018E0788830B97F
:104020002DB1802D03D02946204600F07CFD60682C
:1040300004F5B6718268204690472046FFF704FFDA
:1040400003E02046FFF70CFF00BF00BF03E020465F
:10405000FFF706FF00BF00BF4046BDE8F08110B586
:1040600004462068FFF786FC012802D12068FFF78C
:1040700079FC10BD70B5044625682846FFF7BEF8E8
:10408000E86820F4705000F5A050E860402300225A
:104090001146204600F031F84023002280212046BE
:1040A00000F02BF8012084F884016068406818B1A2
:1040B000606841682046884770BD70B504460D466B
:1040C00005F0800050B105F07F0000EB400101EBEE
:1040D000C00104F10C0000EB810609E005F07F004F
:1040E00000EB400101EBC00104F1BC0000EB8106D4
:1040F00031462068FFF7F2F870BD2DE9F04705461C
:104100000E4617469846D5F8009006F0800060B934
:1041100006F07F0000EB400101EBC00105F1BC009F
:1041200000EB81040120A0700BE006F07F0000EBA3
:10413000400101EBC00105F10C0000EB81040020FF
:10414000A070C4F80880E77021464846FFF791F94F
:10415000BDE8F0872DE9F04305460C4616462F686A
:1041600004F07F0808EB480909EBC80905F1BC0811
:1041700008EB890191F8008007F5306909EB4810D8
:1041800007F5006C4E618B614FF00008C1F81C8090
:1041900004F07F08B8F1000F03D1D1F80880C1F80E
:1041A0001880D1F81880B8F1000F04D004F07F080F
:1041B000B8F1000F10D1D1F80890D0F8108069F351
:1041C0001208C0F810804FF00109D0F8108069F390
:1041D000DC48C0F8108018E0D1F80890D1F81880B9
:1041E000C844A8F10108B8FBF9F2D1F8088008FB2F
:1041F00002F8D0F8109068F31209C0F81090D0F8C7
:10420000108062F3DC48C0F8108091F80380B8F1A8
:10421000010F17D1DCF80880C8F30028B8F1000FAF
:1042200008D1D0F8008028F0005808F10058C0F8F4
:10423000008007E0D0F8008028F0805808F180580E
:10424000C0F80080D0F8008028F0806808F180680D
:10425000C0F80080D0F8008028F0004808F100483D
:10426000C0F80080BDE8F0832DE9F84F06460F4600
:1042700092469B46D6F8008007F07F0000EB400195
:1042800001EBC00106F10C0000EB8104207808F579
:10429000106101EB401508F50069C4F814A0C4F8DA
:1042A00018B00020E061A06948B90121286961F3D4
:1042B000DC40286128696FF3120028612FE007F0C5
:1042C0007F0090B9A168A069884201D9A068A06167
:1042D000A169286961F3120028610121286961F34D
:1042E000DC402861A069206219E0A168A069084447
:1042F000401EB0FBF1F00090A169286961F3120043
:1043000028610098296960F3DC412961E07801287F
:1043100005D1286920F0C04000F100502861E07804
:10432000012809D0A06938B1D9F8340022780121D8
:1043300091400843C9F83400E078012811D1D9F838
:104340000800C0F3002030B9286820F0005000F1C8
:104350000050286005E0286820F0805000F180506F
:104360002860286820F0806000F18060286028685C
:1043700020F0004000F100402860E078012806D1DC
:10438000208B83B2227840466169FFF746FBBDE887
:10439000F88F70B505462C68B4F1A04F17D1802175
:1043A0002046FFF7BCFA182200212046FFF7B9FA91
:1043B000142201212046FFF7B4FA142202212046DC
:1043C000FFF7AFFA142203212046FFF7AAFA70BDC7
:1043D00070B50446002504F5B676F088012803D0B0
:1043E0002046FFF73DFD1CE094F88401022802D02E
:1043F000032811D109E0002084F88801012204F586
:10440000C4712046FFF70CFD0AE0012204F2891175
:104410002046FFF705FD03E02046FFF721FD00BF22
:1044200000BF284670BD2DE9F04704464FF0000854
:10443000C14600254FF4B770005B0612082E4BD220
:10444000DFE806F04A04090E4A4A4145A1680868B7
:104450008047054645E0A16888688047054640E0FA
:104460004FF4B770075D062F22D2DFE807F003088C
:104470000D12171CA16808698047054621E0A16854
:104480004869804705461CE0A16888698047054661
:1044900017E0A168C8698047054612E0A168486A2C
:1044A000804705460DE0A168086A8047054608E098
:1044B000606804F5B6718268204690474046BDE8C2
:1044C000F08700BF0DE02046FFF7CAFC09E0204658
:1044D000FFF7C6FC4046F2E72046FFF7C1FC404626
:1044E000EDE700BFB5B12888A0B14FF4B970005B0B
:1044F00080B129884FF4B970005B814201DA2888C5
:1045000002E04FF4B970005B81464A462046696874
:10451000FFF786FC4046D2E710B5024601F07F0067
:1045200000EB400404EBC00402F1BC0000EB840388
:10453000D86910BD70B50446002594F8840102289E
:1045400002D0032811D100E000BF94F8870128B100
:10455000D4F88C0140F00200C4F88C01022204F56A
:10456000C6712046FFF75CFC03E02046FFF778FCAD
:1045700000BF00BF284670BD10B504466068006AE1
:1045800020B160680521026A2046904710BD10B531
:1045900004466068006A20B160680621026A20460D
:1045A000904710BD2DE9F0418046D8F80060002505
:1045B0003046FFF7BBF8074646E007F00100002849
:1045C00040D029463046FEF73EFF044604F0010085
:1045D00088B140F6340080590121A940884340F653
:1045E00034018851012229463046FEF726FFE9B200
:1045F0004046FFF77FFA04F0080020B10822294660
:104600003046FEF71AFF04F0100020B110222946B0
:104610003046FEF712FF04F0400020B14022294648
:104620003046FEF70AFF04F0020020B102222946BC
:104630003046FEF702FF04F0800018B129464046DC
:10464000FFF79FF96D1C7F08002FB6D1BDE8F08100
:104650002DE9F84304460D4616461F46DDF8208036
:104660004FF000093046FFF7C3F820602946204686
:10467000FEF793FD40F29F10005D38B12068806B1B
:1046800020F4801000F580102168886340F2A110AA
:10469000005D38B12068806B20F4001000F5001038
:1046A00021688863009543463A46201D2168FFF73C
:1046B00083FA4846BDE8F88330B50B46002100BFB9
:1046C00016E00A24B4EB107F05D9302404EB1074F3
:1046D00003F8114005E0412404EB10740A3C03F890
:1046E0001140000100254C00641C1D554C1CE1B21A
:1046F0009142E6DB30BD70B50446002504F5B67680
:1047000094F8840103280BD1606804F5B6718268BF
:1047100020469047F08810B92046FFF795FB03E04C
:104720002046FFF79DFB00BF00BF284670BD2DE966
:10473000F04105462E682F1D3046FFF70BF8044662
:10474000706900F00100002864D104F0020018B183
:1047500002213046FEF7FCFF04F4802010B13846F9
:10476000FFF720FF04F4002010B1384600F054F8A1
:1047700004F4805038B1384600F097F84FF4805177
:104780003046FEF7E5FF04F0080030B1384600F08F
:1047900003FA08213046FEF7DBFF04F4005038B17D
:1047A0003846FFF767FC4FF400513046FEF7D0FF64
:1047B00004F0100010B1384600F0D1F804F4801075
:1047C00038B13846FFF7D8FE4FF480113046FEF777
:1047D000BFFF04F4001038B13846FFF7D8FE4FF49D
:1047E00000113046FEF7B4FF04F0004038B13846FF
:1047F00000F016FA4FF000413046FEF7A9FF04F42E
:10480000006038B1384600F0D1F94FF4006130460D
:10481000FEF79EFFBDE8F0812DE9F0410446D4F893
:10482000008000264046FEF78AFF074639E007F081
:104830000100A0B331464046FEF7F1FE054605F003
:10484000010040B1012231464046FEF7E2FEF1B2DE
:104850002046FFF75DFA05F00800C0B10822314696
:104860004046FEF7D6FEF1B22046FFF791FA94F8E3
:10487000860160B194F886112068D0F8000861F3D1
:104880000A102168C1F80008002084F8860105F0AC
:10489000100020B1102231464046FEF7BAFE761CC9
:1048A0007F08002FC3D1BDE8F0812DE9F041064615
:1048B000376807F500640025606820F0010060603B
:1048C0003046FFF766FD10213846FEF713FF00BFA4
:1048D0000BE0FF2107F5106000EB4510816007F544
:1048E000306000EB451081606D1C042DF1D34FF05A
:1048F000FF30A0614FF00110E061606920F001001D
:10490000401C6061606920F00200801C6061606989
:1049100020F0080008306061206920F00100401C90
:104920002061206920F00200801C2061206920F0B5
:1049300008000830206100213846FEF7E9FF3846BC
:10494000FEF76DFC012086F884017068006A20B1D2
:1049500070680121026A30469047BDE8F0812DE978
:10496000F0470746D7F80080002210214046FEF7A6
:104970000EFFD8F82060C6F30A15C6F3434906F0C7
:104980000F0000EB400101EBC00107F1BC0000EBA0
:104990008104B9F1020F0ED1DDB1ABB206F00F0206
:1049A00040466169FEF79FFF606928446061E069E5
:1049B0002844E0610DE0B9F1060F0AD1ABB206F070
:1049C0000F0207F5BA714046FEF78DFFE0692844F3
:1049D000E061012210214046FEF7D9FEBDE8F087D4
:1049E0002DE9F0410446002704F5B675A888D0B932
:1049F000E888C0B9A87800F07F0694F884010328FD
:104A000003D12046FFF72CFA10E084F886611EB12E
:104A1000022084F8840102E0012084F88401204609
:104A2000FFF712FA02E02046FFF71AFA3846BDE80F
:104A3000F081000070B50446002604F5B675A8782C
:104A40002D490870A888002850D1E88800284DD149
:104A500094F88401022802D0032842D115E02648A8
:104A6000007870B12448007884F88901032084F824
:104A7000840160680168204688472046FFF7E4F912
:104A800002E02046FFF7E0F92FE01B48007870B9FC
:104A9000022084F884011848007884F8890160684D
:104AA0004168204688472046FFF7CEF918E094F881
:104AB00089011149097888420FD160684168204610
:104AC00088470D48007884F88901606801682046AD
:104AD00088472046FFF7B8F902E02046FFF7B4F90F
:104AE00003E02046FFF7BCF900BF02E02046FFF7D5
:104AF000B7F9304670BD00002800002070B50446AC
:104B0000002504F5B676708801280AD184F887015B
:104B1000606804F5B6718268204690472046FFF72A
:104B200093F9284670BD2DE9F04104460D462768EB
:104B300005F0800050B105F07F0000EB400101EB73
:104B4000C00104F10C0000EB810609E005F07F00D4
:104B500000EB400101EBC00104F1BC0000EB810659
:104B600031463846FEF766FD01207073BDE8F081DE
:104B70000A7802704A7842708B78CA7803EB022276
:104B800042800B794A7903EB022282808B79CA79C1
:104B900003EB0222C280704710B504466068C0690A
:104BA00018B16068C1692046884710BD70B50446D9
:104BB000256840F60800405900F0010088B194F8DB
:104BC000840184F88501042084F884012046FFF7DD
:104BD00046FA6068006A20B160680221026A2046D5
:104BE000904770BDF0B50346002002241A460CE041
:104BF000451CA8B212F8017B2546661CB4B24F557D
:104C000000272546661CB4B24F551578002DEFD10C
:104C1000022505EB4005A8B2087003254D70F0BDD4
:104C200070B50446256840F60400405920F00101A3
:104C300040F6040041512068FEF74EFE94F88501CD
:104C400084F884016068006A20B160680321026A08
:104C50002046904770BD00000000000000000000EA
:104C6000000000000000000000080808080808080C
:104C700000001818000000486C241200000000001A
:104C80000000000000000000002424247F12121203
:104C90007F12121200000000081C2A2A0A0C182891
:104CA000282A2A1C080800000022251515152A5854
:104CB0005454542200000000000C1212120A7625EF
:104CC0002911916E00000006060403000000000098
:104CD000000000000000004020101008080808082C
:104CE00008101020400000020408081010101010D6
:104CF0001008080402000000000008086B1C1C6B70
:104D000008080000000000000000080808087F08EC
:104D1000080808000000000000000000000000007B
:104D20000000060604030000000000000000FE0072
:104D30000000000000000000000000000000000073
:104D400000000606000000008040402020101008EF
:104D500008040402020000000018244242424242B9
:104D6000424224180000000000080E080808080845
:104D70000808083E00000000003C4242422020108B
:104D80000804427E00000000003C424220182040FF
:104D90004042221C0000000000203028242422224F
:104DA0007E20207800000000007E0202021A2640C9
:104DB0004042221C0000000000382402021A264251
:104DC0004242241800000000007E22221010080831
:104DD0000808080800000000003C42424224182451
:104DE0004242423C00000000001824424242645803
:104DF0004040241C000000000000000018180000C3
:104E0000000018180000000000000000000800006A
:104E100000000008080400000040201008040204FC
:104E20000810204000000000000000007F0000008B
:104E30007F00000000000000000204081020402055
:104E40001008040200000000003C424246402010CE
:104E50001000181800000000001C225A5555555526
:104E60002D42221C00000000000808181414243CE5
:104E7000224242E700000000001F2222221E22429E
:104E80004242221F00000000007C42420101010159
:104E90000142221C00000000001F22424242424206
:104EA0004242221F00000000003F4212121E121256
:104EB0000242423F00000000003F4212121E121246
:104EC0000202020700000000003C222201010171E1
:104ED0002122221C0000000000E7424242427E42A2
:104EE000424242E700000000003E080808080808A7
:104EF0000808083E00000000007C10101010101080
:104F000010101010110F0000007722120A0E0A1262
:104F100012222277000000000007020202020202B1
:104F20000202427F000000000077363636362A2A19
:104F30002A2A2A6B0000000000E346464A4A5252E1
:104F40005262624700000000001C22414141414181
:104F50004141221C00000000003F424242423E020A
:104F60000202020700000000001C224141414141B1
:104F70004D53321C60000000003F4242423E12127C
:104F8000222242C700000000007C42420204182096
:104F90004042423E00000000007F4908080808081F
:104FA0000808081C0000000000E74242424242425A
:104FB0004242423C0000000000E742422224241406
:104FC0001418080800000000006B4949494955556C
:104FD000362222220000000000E74224241818187C
:104FE000242442E70000000000772222141408085D
:104FF0000808081C00000000007E21201010080492
:105000000442423F00000078080808080808080821
:1050100008080808780000000202040408080810C4
:10502000102020204040001E1010101010101010F2
:10503000101010101E000038440000000000000096
:105040000000000000000000000000000000000060
:105050000000000000FF0006080000000000000043
:10506000000000000000000000000000003C42784A
:10507000444242FC0000000000030202021A2642E1
:105080004242261A000000000000000000384402DE
:105090000202443800000000006040404078444272
:1050A000424264D80000000000000000003C427E44
:1050B0000202423C0000000000F08808087E080858
:1050C0000808083E0000000000000000007C2222CA
:1050D0001C023C42423C000000030202023A4642EB
:1050E000424242E700000000000C0C00000E0808DD
:1050F0000808083E00000000003030000038202082
:1051000020202020221E0000000302020272120A48
:105110001612227700000000000E08080808080890
:105120000808083E0000000000000000007F929286
:10513000929292B70000000000000000003B46423F
:10514000424242E70000000000000000003C4242F2
:105150004242423C0000000000000000001B2642CA
:105160004242221E02070000000000000078444274
:105170004242447840E000000000000000774C0408
:105180000404041F0000000000000000007C420234
:105190003C40423E0000000000000008083E0808B5
:1051A00008080830000000000000000000634242D0
:1051B000424262DC000000000000000000E74224E0
:1051C00024140808000000000000000000EB49491A
:1051D000555522220000000000000000007624182F
:1051E0001818246E000000000000000000E74224B0
:1051F000241418080807000000000000007E221098
:105200000808447E000000C020202020201020201C
:1052100020202020C00010101010101010101010AE
:1052200010101010101000060808080808100808D0
:105230000808080806000C32C20000000000000048
:10524000000000000000000000000000000000005E
:10525000000000000000000000000000000000004E
:10526000000000000000000000000000000000003E
:1052700000000000000000000000000000006000CE
:10528000600060006000600060006000400020007E
:1052900020002000000000000000600060006000AE
:1052A00000000000000000000000600660063003FF
:1052B0009801880044000000000000000000000089
:1052C00000000000000000000000000000000000DE
:1052D00000000000000000000000000000001002BC
:1052E000100210021002FE07FE0708020801080162
:1052F00008010801FE07FE0704010401040104017E
:10530000000000000000000000000000400040001D
:10531000F00158034C03CC034C0058007000E0002F
:10532000C001C00140034C035C034C034801F00082
:1053300040004000000000000000000000000E01DE
:105340000A01910091009100510051003A00AE0312
:10535000A002500450044804480448048402840312
:105360000000000000000000000000000000380005
:105370006C006C006C006C006C002C0098071C0129
:105380001A01330133016301E300C308C6093C0776
:10539000000000000000000000000C001C001000D5
:1053A00010000800040000000000000000000000E1
:1053B00000000000000000000000000000000000ED
:1053C00000000000000000000000000400020001D6
:1053D00080008000400040002000200020002000CD
:1053E00020002000200040004000800080000001DC
:1053F0000002000400000000000002000400080099
:10540000100010002000200040004000400040003C
:105410004000400040002000200010001000080064
:105420000400020000000000000000000000000076
:1054300000004000C0004000460C4E0FD001F001BB
:105440005E0F460C400040004000000000000000DD
:10545000000000000000000000000000000000004C
:105460000000000040004000400040004000FE0FEF
:1054700040004000400040004000000000000000EC
:10548000000000000000000000000000000000001C
:10549000000000000000000000000000000000000C
:1054A000000000000000000000000C001C001000C4
:1054B00010000800040000000000000000000000D0
:1054C0000000000000000000000000000000FE07D7
:1054D00000000000000000000000000000000000CC
:1054E00000000000000000000000000000000000BC
:1054F00000000000000000000000000000000000AC
:10550000000000000000000000001C001C001C0047
:10551000000000000000000000000004000600027F
:105520000003000100018000800040004000600096
:105530002000200010001000080008000C000400EB
:105540000600020000000000000000000000000053
:10555000F00098010C030C03060606060606060674
:1055600006060606060606060C030C039801F00064
:10557000000000000000000000000000000000002B
:1055800040007C006000600060006000600060001F
:105590006000600060006000600060006000FC036C
:1055A00000000000000000000000000000000000FB
:1055B000F8008401020306030603000300018001D2
:1055C000C000600020001000080204020602FE0372
:1055D00000000000000000000000000000000000CB
:1055E0007800C6008601860180018001C00070003D
:1055F0008001000100030003060306038601F80092
:10560000000000000000000000000000000000009A
:1056100080018001C001A001A001900188018801E2
:1056200084018201FE0F8001800180018001E0077A
:10563000000000000000000000000000000000006A
:10564000FC0304000400040004000400F4008C01C6
:105650000403000300030603060382018401F8002B
:10566000000000000000000000000000000000003A
:10567000E00118030C030C0004000600E601160309
:105680000E0606060606060604060C021803F000BF
:10569000000000000000000000000000000000000A
:1056A000F8070C06040204010001000180008000DC
:1056B000400040004000600060006000600060004A
:1056C00000000000000000000000000000000000DA
:1056D000F8010C030606060606060C021C03F00081
:1056E000C8010C0306060606060606060C03F001B2
:1056F00000000000000000000000000000000000AA
:10570000F0000C010C030602060606060606060754
:105710008C0678060006000300030C018C0178005B
:105720000000000000000000000000000000000079
:1057300000000000000000000000E000E000E000C9
:1057400000000000000000000000E000E000E000B9
:105750000000000000000000000000000000000049
:105760000000000000000000000060006000000079
:105770000000000000000000000000006000600069
:105780004000200020000000000000000000000495
:10579000000200018000400020001000080004000A
:1057A00008001000200040008000000100020004FA
:1057B00000000000000000000000000000000000E9
:1057C00000000000000000000000FE0700000000D4
:1057D0000000FE07000000000000000000000000C4
:1057E00000000000000000000000000000000400B5
:1057F00008001000200040008000000100020004AA
:105800000002000180004000200010000800040099
:105810000000000000000000000000000000000088
:10582000E0031806040C040C0C0C0C0C000780019F
:1058300040004000400000000000E000E000E00008
:105840000000000000000000000000000000E00078
:1058500018030C02CC0564056605A605B604B6045B
:10586000B604B604B602E4010C040C021803F000FE
:105870000000000000000000000000000000000028
:10588000600060005000D000900090008800880107
:105890000801F801040304030402020202060F0FC8
:1058A00000000000000000000000000000000000F8
:1058B000FE008C030C030C030C030C038C01FC0096
:1058C0000C030C020C060C060C060C060C03FE0165
:1058D00000000000000000000000000000000000C8
:1058E000E00318030C060C0404040600060006007E
:1058F00006000600060006040C040C021803F00063
:105900000000000000000000000000000000000097
:105910007F008C010C030C030C060C060C060C0615
:105920000C060C060C060C060C030C038C017F0005
:105930000000000000000000000000000000000067
:10594000FF03060306040604060086008600FE0028
:105950008600860086000600060406040602FF0391
:105960000000000000000000000000000000000037
:10597000FF03060306040604060086008600FE00F8
:1059800086008600860006000600060006001F004E
:105990000000000000000000000000000000000007
:1059A000F00018010C020C020402060006000600BA
:1059B0000600C60F060306030C030C031803F000D1
:1059C00000000000000000000000000000000000D7
:1059D0000F0F060606060606060606060606FE075C
:1059E00006060606060606060606060606060F0F45
:1059F00000000000000000000000000000000000A7
:105A0000FC036000600060006000600060006000F7
:105A10006000600060006000600060006000FC03E7
:105A20000000000000000000000000000000000076
:105A3000F807C000C000C000C000C000C000C00027
:105A4000C000C000C000C000C000C000C000C00056
:105A5000C60066003C0000000000000000000000DE
:105A6000CF038601C60046002600160036002E0031
:105A70006E004600C60086008601060106038F07F9
:105A80000000000000000000000000000000000016
:105A90001F000600060006000600060006000600BD
:105AA0000600060006000600060406040602FF03C0
:105AB00000000000000000000000000000000000E6
:105AC0000707860386038E038E034E034E034A03A5
:105AD0005A035A033A03320332033203120387078D
